:100000000C9463000C9429080C9402080C9450087A
:100010000C9450080C9450080C948B000C948B009A
:100020000C948B000C948B000C948B000C948B0024
:100030000C948B000C948B000C948B000C948B0014
:100040000C94B8070C948B000C9486070C946007F2
:100050000C948B000C948B000C948B000C948B00F4
:100060000C948B000C948B000000000024002700EF
:100070002A0000000008000201000003040700003D
:1000800000000000000000000000230026002900FE
:1000900000000000250028002B00040404040404D0
:1000A0000404020202020202030303030303010227
:1000B00004081020408001020408102001020408F6
:1000C0001020C808BB0D11241FBECFEFD8E0DEBF43
:1000D000CDBF25E0ACE3B4E001C01D92A837B20764
:1000E000E1F714E0A0E0B1E0E0E1F4E202C0059045
:1000F0000D92AC33B107D9F710E0C2E6D0E004C0EE
:100100002197FE010E940310C136D107C9F70E9452
:10011000B4090C94FB110C940000DB0114964D9172
:100120005C9115976D917C91DC01ED91FC910280C1
:10013000F381E02D0994AF92BF92CF92DF92EF92BC
:10014000FF920F931F93CF93DF936C017B018B0181
:10015000040F151FEB015E01AE18BF08C017D107D1
:1001600059F06991D601ED91FC910190F081E02D5B
:10017000C6010995892B79F7C501DF91CF911F91B0
:100180000F91FF90EF90DF90CF90BF90AF900895C8
:10019000FC01538D448D252F30E0842F90E0821B8D
:1001A000930B541710F0CF96089501970895FC0112
:1001B000918D828D981761F0A28DAE0FBF2FB11D6A
:1001C0005D968C91928D9F5F9F73928F90E00895C2
:1001D0008FEF9FEF0895FC01918D828D981731F07C
:1001E000828DE80FF11D858D90E008958FEF9FEFD0
:1001F0000895FC01918D228D892F90E0805C9F4FA6
:10020000821B91098F739927089584E994E00E94D5
:10021000F90021E0892B09F420E0822F0895FC01E8
:10022000A48DA80FB92FB11DA35ABF4F2C91848D57
:1002300090E001968F739927848FA689B7892C93B4
:10024000A089B1898C91837080648C93938D848D07
:10025000981306C00288F389E02D80818F7D80830A
:100260000895EF92FF920F931F93CF93DF93EC01CA
:1002700081E0888F9B8D8C8D98131AC0E889F9894D
:10028000808185FF15C09FB7F894EE89FF89608350
:10029000E889F98980818370806480839FBF81E0D1
:1002A00090E0DF91CF911F910F91FF90EF90089513
:1002B000F62E0B8D10E00F5F1F4F0F731127E02EEE
:1002C0008C8D8E110CC00FB607FCFACFE889F98926
:1002D000808185FFF5CFCE010E940F01F1CFEB8D1C
:1002E000EC0FFD2FF11DE35AFF4FF0829FB7F894FA
:1002F0000B8FEA89FB8980818062CFCFCF93DF9318
:10030000EC01888D8823B9F0AA89BB89E889F9892D
:100310008C9185FD03C0808186FD0DC00FB607FC62
:10032000F7CF8C9185FFF2CF808185FFEDCFCE0195
:100330000E940F01E9CFDF91CF910895833081F0C2
:1003400028F4813099F08230A9F008958730A9F01F
:100350008830C9F08430B1F4809180008F7D03C073
:10036000809180008F7780938000089584B58F7787
:1003700084BD089584B58F7DFBCF8091B0008F77C9
:100380008093B00008958091B0008F7DF9CFCF9316
:10039000DF93282F30E0F901EE58FF4F8491F901E7
:1003A000E255FF4FD491F901E656FF4FC491CC239B
:1003B000A1F081110E949E01EC2FF0E0EE0FFF1FD3
:1003C000EA57FF4FA591B491EC91ED2381E090E0C5
:1003D00009F480E0DF91CF91089580E090E0FACFBA
:1003E0001F93CF93DF93282F30E0F901EE58FF4F92
:1003F0008491F901E255FF4FD491F901E656FF4F80
:10040000C491CC23A9F0162F81110E949E01EC2FDC
:10041000F0E0EE0FFF1FE057FF4FA591B4918FB7AB
:10042000F894EC91111108C0D095DE23DC938FBFB6
:10043000DF91CF911F910895DE2BF8CFCF93DF93FB
:1004400090E0FC01E255FF4F249186569F4FFC013E
:1004500084918823D1F090E0880F991FFC01E8591E
:10046000FF4FA591B491FC01E057FF4FC591D49186
:1004700061110EC09FB7F8948C91E22FE0958E2306
:100480008C932881E223E8839FBFDF91CF91089569
:100490008FB7F894EC91E22BEC938FBFF6CF3FB778
:1004A000F8948091850490918604A0918704B0917E
:1004B000880426B5A89B05C02F3F19F00196A11D01
:1004C000B11D3FBFBA2FA92F982F8827BC01CD019E
:1004D000620F711D811D911D42E0660F771F881FFD
:1004E000991F4A95D1F708958F929F92AF92BF922C
:1004F000CF92DF92EF92FF924B015C010E944F027C
:100500006B017C010E944F026C197D098E099F09C5
:10051000683E734081059105A8F321E0821A910895
:10052000A108B10888EEC80E83E0D81EE11CF11CBA
:1005300081149104A104B10429F7FF90EF90DF909A
:10054000CF90BF90AF909F908F9008950895089599
:1005500020918B0430918C042817390771F4909105
:10056000890480918A04981741F0E0918904F0E0B1
:10057000E05CFB4F808190E008958FEF9FEF08953E
:100580000895EF92FF920F931F93CF93DF93DC01B7
:100590005C96ED90FC905D97E114F10479F481E0B4
:1005A00090E013969C938E93129790E080E0DF91F9
:1005B000CF911F910F91FF90EF9008955196ED917B
:1005C000FC91529750968C915097982F90950FB719
:1005D0005E962C915E97122F127021FD6095F89413
:1005E0002081112319F1282B2083E7012197F1F7AE
:1005F00028E0462F50E0308160FF1AC0382B30834E
:10060000E7012197F1F7BA0175956795215089F7B0
:10061000112381F08081892380830FBF5C968D91A7
:100620009C910197F1F781E090E0C1CF2923DCCFC5
:100630003923E5CF9081892BEFCF20918B04309126
:100640008C042817390771F480918A042091890459
:1006500090E0805C9F4F821B910960E470E00E94F3
:10066000B90F089590E080E0089520918B043091B7
:100670008C0428173907B9F49091890480918A0471
:10068000981789F0E0918904F0E0E05CFB4F8081ED
:100690002091890430E02F5F3F4F2F733327209341
:1006A000890490E008958FEF9FEF089590E080E037
:1006B0000895CF93DF9382E00E94C701019761F410
:1006C000809192049091930401968A3091053CF4B4
:1006D0009093930480939204DF91CF9108951092A8
:1006E00093041092920480910601909107011816CC
:1006F00019062CF401979093070180930601C0918D
:100700000601D0910701BE010D2E000C880B990B3C
:100710000E94E10D20E030E040E251E40E941C0E16
:100720000E94830F7093910460939004CD2BA1F2EB
:10073000109293041092920410923F0410923E047F
:10074000CBCF6AE184E994E00C943101CF93DF933D
:10075000EC0160E08E810E94F00161E08E810E94D8
:10076000F00160E08E810E94F0018BE891E001973A
:10077000F1F7DF91CF910895CF92DF92EF92FF9240
:100780000F931F93CF93DF936C017C0187E0E80EFA
:10079000F11CD0E0C0E0062F10E0B8010C2E02C022
:1007A000759567950A94E2F76170F70181917F0171
:1007B0000E94F0012196C430D10579F7C601DF917E
:1007C000CF911F910F91FF90EF90DF90CF900C94FD
:1007D000A603CF92DF92EF92FF920F931F93CF93D6
:1007E000DF93EC01F62E642F8C810E94F0018D8145
:1007F0008F3F19F060E00E94F0010F2D10E08F850F
:1008000084FF25C06E0187E0C80ED11CF12CE12CBD
:10081000B8010E2C02C0759567950A94E2F76170D5
:10082000F60181916F010E94F001FFEFEF1AFF0ABC
:1008300088E0E816F10461F7CE01DF91CF911F91B6
:100840000F91FF90EF90DF90CF900C94A603B8012A
:1008500084E0759567958A95E1F7CE010E94BC0307
:100860006F2DCE01DF91CF911F910F91FF90EF90EF
:10087000DF90CF900C94BC0340E0682F8CE595E0AE
:100880000C94E90381E00E943C048BE39FE1019713
:10089000F1F70895CF93DF93823029F490916B059F
:1008A000986090936B0580936F051092700580E4BB
:1008B0008093710580E18093720580E580937305D4
:1008C00061E0809160050E941E02809161058F3F6A
:1008D00019F061E00E941E0261E0809162050E94B1
:1008E0001E02CCE5D5E09E012C55354080916B056C
:1008F00084FD0BC084E090E021962817390744F46A
:1009000061E08E810E941E02EECF88E090E0F4CF7D
:100910008BE39DE00197F1F760E0809160050E9414
:10092000F00160E0809162050E94F0018091610514
:100930008F3F19F060E00E94F00180916B0584FD0B
:1009400034C063E08CE595E00E94BC03CBE4D6E4C0
:10095000CE010197F1F763E08CE595E00E94BC03BE
:100960002197F1F763E08CE595E00E94BC0383E5F5
:1009700092E00197F1F762E08CE595E00E94BC03FC
:1009800080916B0580620E943C0484E080936C053A
:100990008CE00E943C040E94420482E080936D053A
:1009A00086E0DF91CF910C943C0480620E943C046D
:1009B0008BE496E40197F1F780916B0580620E94C9
:1009C0003C0483E592E00197F1F780916B0580622A
:1009D0000E943C04D5CF90916F05691710F06FEF1E
:1009E000690FE62FF0E0E45AFA4F9489890F806886
:1009F0000C943C0441E00E94E90381E090E00895FA
:100A0000FC0180819181009711F00C94A51008954C
:100A10000F931F93CF93DF93EC0188819981009707
:100A200059F02A813B812617370730F081E0DF91AA
:100A3000CF911F910F9108958B016F5F7F4F0E949F
:100A40002E11009759F0998388831B830A832C8188
:100A50003D81232B59F7FC011082E8CF80E0E7CFDE
:100A6000EF92FF920F931F93CF93DF93EC017B01E3
:100A7000198218821B821A821D821C82FB0101903E
:100A80000020E9F731978F01061B170BB8010E9470
:100A9000080528813981811113C02115310519F00C
:100AA000C9010E94A510198218821D821C821B8216
:100AB0001A82DF91CF911F910F91FF90EF900895CF
:100AC0001D830C83B701C901DF91CF911F910F9155
:100AD000FF90EF900C94F411FB0101900020E9F7D6
:100AE0003197AF01461B570BDC01ED91FC91028061
:100AF000F381E02D09944F925F926F927F928F92D3
:100B00009F92AF92BF92CF92DF92EF92FF920F939C
:100B10001F93CF93DF93CDB7DEB7A1970FB6F894AD
:100B2000DEBF0FBECDBF8C016B01770FEE08FF0853
:100B3000F7FE49C0DC01ED91FC910190F081E02DC0
:100B40006DE209955C0122273327A9012C193D0983
:100B50004E095F0919A2FE01B1967F019AE0492E64
:100B6000512C612C712CCA01B901A30192010E9480
:100B7000CD0F605DD7016E937D01211531054105D3
:100B8000510589F790E080E0109721F0BD01C80180
:100B90000E946C058A0D9B1DA1960FB6F894DEBFCE
:100BA0000FBECDBFDF91CF911F910F91FF90EF90BE
:100BB000DF90CF90BF90AF909F908F907F906F907D
:100BC0005F904F900895A701960119A2FE01B1967A
:100BD0007F018AE0882E912CA12CB12CCA01B90189
:100BE000A50194010E94CD0F605DD7016E937D0138
:100BF000211531054105510589F790E080E01097F6
:100C000059F2BD01C8010E946C05C6CFCF93DF9396
:100C1000BC0184E994E00E947B05EC0163E971E08A
:100C200084E994E00E946C058C0F9D1FDF91CF91A9
:100C300008950F931F93CF93DF93EC010E946C05EF
:100C40008C0163E971E0CE010E946C05800F911F59
:100C5000DF91CF911F910F9108956EE371E084E9C8
:100C600094E00E94190668EC70E080E090E00E9439
:100C7000740268E471E084E994E00E94190668EC6B
:100C800070E080E090E00C9474020C946C050E947B
:100C900042046EE571E08CE595E00E94450661E056
:100CA00080E00E94EB046BE671E08CE595E00E9429
:100CB00045060E94420468EE73E080E090E00C94E8
:100CC000740284E994E00E94F900892B01F184E91F
:100CD00094E00E94D70020913E0430913F042F5FA2
:100CE0003F4F30933F0420933E048A3251F70E94D5
:100CF000420467E771E08CE595E00E9445060E949A
:100D0000420464EF71E080E090E00C947402089576
:100D10000E94050181110C9461060895BC0184E9CB
:100D200094E00E948D0063E971E084E994E00E9400
:100D30006C0568EC70E080E090E00C9474020F9316
:100D40001F93CF93DF9300D000D000D0CDB7DEB794
:100D500080918F0424E68202C001112490933D0407
:100D600080933C0468E871E08DE395E00E944506BD
:100D700067E375E08DE395E00E948D0062E971E024
:100D80008DE395E00E94190668EE73E080E090E044
:100D90000E94740266E971E08DE395E00E941906F5
:100DA00060913C0470913D048DE395E00E947B05C9
:100DB00000913C0410913D04609190047091910465
:100DC000600F711F7093910460939004072E000CC4
:100DD000880B990B0E94E10D20E030E040E251E4E5
:100DE0000E94110F0E94830F709307016093060108
:100DF0000E94420467E973E08CE595E00E94450695
:100E000061E080E00E94EB046DEA71E08CE595E022
:100E10000E944506B8018CE595E00E947B050E9482
:100E20002D0668EB71E0CE0101960E943005CE01DF
:100E300001960E948E06CE0101960E9400056FEF7A
:100E400071E0CE0101960E943005CE0101960E940C
:100E50008E06CE0101960E9400058091900490912B
:100E600091040E94060668EC70E080E090E00E9429
:100E700074026EE072E0CE0101960E943005CE0150
:100E800001960E948E06CE0101960E9400050E94E6
:100E9000A10310923F0410923E0468EE73E080E0DC
:100EA00090E00E9474020E94470626960FB6F894BE
:100EB000DEBF0FBECDBFDF91CF911F910F9108957F
:100EC0001F920F920FB60F9211242F933F934F93BF
:100ED0005F936F937F938F939F93AF93BF93EF93A2
:100EE000FF9384E994E00E940F01FF91EF91BF917D
:100EF000AF919F918F917F916F915F914F913F91B2
:100F00002F910F900FBE0F901F9018951F920F9268
:100F10000FB60F9211242F938F939F93EF93FF930C
:100F2000E091A404F091A5048081E091AA04F091DD
:100F3000AB0482FD1BC090818091AD048F5F8F73E5
:100F40002091AE04821741F0E091AD04F0E0EC5640
:100F5000FB4F958F8093AD04FF91EF919F918F91FF
:100F60002F910F900FBE0F901F9018958081F4CF96
:100F70001F920F920FB60F9211242F933F938F93CE
:100F80009F93AF93BF938091810490918204A0912D
:100F90008304B09184043091800423E0230F2D3723
:100FA00058F50196A11DB11D209380048093810402
:100FB00090938204A0938304B09384048091850469
:100FC00090918604A0918704B09188040196A11D98
:100FD000B11D8093850490938604A0938704B093F9
:100FE0008804BF91AF919F918F913F912F910F9066
:100FF0000FBE0F901F90189526E8230F0296A11D93
:10100000B11DD2CF1F920F920FB60F9211242F93C2
:101010003F934F935F936F937F938F939F93AF9380
:10102000BF93EF93FF93E0910201F09103010995C3
:10103000FF91EF91BF91AF919F918F917F916F91B0
:101040005F914F913F912F910F900FBE0F901F9086
:1010500018951F920F920FB60F9211242F933F9362
:101060004F935F936F937F938F939F93AF93BF93B0
:10107000EF93FF93E0910001F09101010995FF9139
:10108000EF91BF91AF919F918F917F916F915F9100
:101090004F913F912F910F900FBE0F901F90189579
:1010A0001F920F920FB60F9211242F933F934F93DD
:1010B0005F936F937F938F939F93AF93BF93EF93C0
:1010C000FF93E0918B04F0918C04309749F0A68552
:1010D000B7858585968D91FF14C09C918923A1F4D5
:1010E000FF91EF91BF91AF919F918F917F916F9100
:1010F0005F914F913F912F910F900FBE0F901F90D6
:1011000018959C91892361F7A389B4899C9185895D
:10111000809589238C93868997890197F1F7608D53
:10112000718DA685B785558538E020E0CB01019704
:10113000F1F7822F90E095958795282F4C914523C4
:1011400009F02068315091F7868D81FD20958091BE
:101150008A0490E001968F7399273091890438179B
:1011600099F0A0918A04B0E0A05CBB4F2C938093CF
:101170008A04828D938D0197F1F7A389B4898C91AC
:101180009589892B8C93ACCF868D8160868FF1CF2A
:10119000CF92DF92EF92FF921092970410929604F2
:1011A00098EEC92E93E0D92EE12CF12CC092980430
:1011B000D0929904E0929A04F0929B0482E191E02B
:1011C000909395048093940485EC90E09093A1040F
:1011D0008093A00484EC90E09093A3048093A204F5
:1011E00080EC90E09093A5048093A40481EC90E0BF
:1011F0009093A7048093A60482EC90E09093A904B6
:101200008093A80486EC90E09093AB048093AA04AA
:101210001092AD041092AE041092AF041092B0047C
:1012200010925F0510925E0586E391E090935D0554
:1012300080935C0583E0809360058FEF8093610568
:1012400084E08093620585E08093630586E0809367
:10125000640587E08093650588E0809366051092B9
:101260006705109268051092690510926A05109240
:101270006B0581E00E944A041092400510923F05E0
:10128000C0924105D0924205E0924305F092440598
:1012900084E291E090933E0580933D0510925405C1
:1012A000109253051092560510925505109258054C
:1012B0001092570510925A051092590560915B05DE
:1012C0006E7F6D7F60935B056695617081E0682736
:1012D0008AE00E94F00161E08AE00E941E02E8EBD1
:1012E000F0E0E491E0934D05E4EAF0E0E491F0E011
:1012F000EE0FFF1FE057FF4F8591949190934F059C
:1013000080934E0560E089E00E941E0280915B059B
:1013100081FD04C061E089E00E94F00189E08093D2
:101320004905E7EBF0E0E491E0934A05E3EAF0E0F9
:10133000E491F0E0EE0FFF1FEA57FF4F8591949183
:1013400090934C0580934B0560E571E087E395E051
:101350000E94300567E472E081E395E0FF90EF9032
:10136000DF90CF900C943005CF93DF93CDB7DEB7ED
:101370002C970FB6F894DEBF0FBECDBF789484B51E
:10138000826084BD84B5816084BD85B5826085BD81
:1013900085B5816085BD80916E00816080936E000F
:1013A0001092810080918100826080938100809101
:1013B00081008160809381008091800081608093B2
:1013C00080008091B10084608093B1008091B00072
:1013D00081608093B00080917A00846080937A006D
:1013E00080917A00826080937A0080917A00816097
:1013F00080937A0080917A00806880937A001092BE
:10140000C10060E082E00E941E0289E593E09093B3
:1014100001018093000180916900836080936900DD
:10142000E89A82E00E944A040E944204E091A404E7
:10143000F091A50482E08083E091A004F091A104E2
:101440001082E091A204F091A3048FEC80831092AB
:10145000AC04E091A804F091A90486E08083E091B7
:10146000A604F091A704808180618083E091A604A6
:10147000F091A704808188608083E091A604F091B8
:10148000A704808180688083E091A604F091A7047E
:1014900080818F7D8083109258051092570510929D
:1014A00056051092550510925405109253058DE97A
:1014B00091E090935A058093590590914905963192
:1014C00008F047C02DEB30E03093540520935305CE
:1014D0002BE931E030935605209355052CE231E09D
:1014E00030935805209357052091680084E0983088
:1014F00048F031E09E3008F430E081E001C0880F10
:101500003A95EAF7822B809368002DE630E0983018
:1015100050F02BE630E09E3030F02CE630E0963193
:1015200010F030E020E03093510520935005292F32
:1015300030E0983008F0ECC181E001C0880F9A9546
:10154000EAF7809352058091590590915A050197C9
:10155000F1F78091570590915805892B49F1E09159
:101560008B04F0918C0485E0ED33F80709F1309796
:1015700039F0A389B4899C918589809589238C93BE
:1015800080915B058E7F80935B0510928A04109298
:1015900089048DE395E090938C0480938B04E09113
:1015A0005005F0915105808190915205892B8083DF
:1015B00061E08DE00E941E0261E083E10E941E0254
:1015C00060E08BE00E941E0261E082E00E94F00178
:1015D00060E080E00E94EB0465E572E08CE595E058
:1015E0000E94450661E080E00E94EB0467EB72E038
:1015F0008CE595E00E94450660ED77E080E090E0A4
:101600000E9474020E94420462E672E08CE595E05A
:101610000E9445060E94420465E772E08CE595E071
:101620000E94450662E872E08DE395E00E9419068B
:1016300064E972E08DE395E00E94190661E08DE0B7
:101640000E94F00168EE73E080E090E00E94740276
:1016500065EA72E084E994E00E94190660E08DE09A
:101660000E94F0010E9442040E942D0665E772E08C
:10167000CE0101960E94300518861F821A861986AF
:101680001C861B860091310510913205011511054C
:10169000C9F0E0903505F0903605B701CE01079608
:1016A0000E9408052F81388581113FC12115310520
:1016B00019F0C9010E94A51018861F821C861B867E
:1016C0001A86198668E871E08DE395E00E94450668
:1016D000BE01695F7F4F8DE395E00E948D0062E956
:1016E00071E08DE395E00E94190664EF71E080E0FF
:1016F00090E00E947402BE016F5F7F4F8DE395E022
:101700000E948D0063E971E08DE395E00E946C0515
:1017100064EF71E080E090E00E9474026AE18DE382
:1017200095E00E94C10268E873E180E090E00E94C9
:101730007402CE0107960E940005CE0101960E9418
:1017400000050E94A10368EE73E080E090E00E9433
:1017500074020E94420483E0F82E95E0E92E24E012
:10176000D22E32E0C32E8BE00E94C70180919204FA
:101770000E94C7010E94610660E080E00E94EB04C5
:101780006DEB72E08CE595E00E94450660910601E4
:10179000709107018CE595E00E947B0561E080E097
:1017A0000E94EB046091060170910701072E000C66
:1017B000880B990B0E94E10D20E030E040E251E4FB
:1017C0000E941C0E0E94830F7093910460939004FA
:1017D00065E072E08CE595E00E944506609190041A
:1017E000709191048CE595E00E947B0560E08BE0B0
:1017F0000E94EB0464EC72E08CE595E00E944506E3
:1018000061E08DE00E94EB0460919204709193047A
:101810008CE595E00E947B0561E080E00E94EB048E
:101820008BE00E94C70120910501222309F484C0A6
:10183000892B09F081C00E9442046AEC72E08CE5B9
:1018400095E00E94450661E080E00E94EB0467EDB0
:1018500072E08CE595E00E94450660ED77E080E05F
:1018600090E00E9474020E94420461E083E10E94C1
:10187000F00160E083E10E94F00168E871E08DE32F
:1018800095E00E94450667E375E08DE395E00E94D0
:101890008D0062E971E08DE395E00E94190668EE23
:1018A00073E080E090E00E94740269EE72E08DE3E4
:1018B00095E00E9419060E94A10368EE73E080E0A3
:1018C00090E00E9474020E94470660ED77E080E09D
:1018D00090E00E9474020E9442046AE073E08CE58A
:1018E00095E00E94450661E080E00E94EB0467E11C
:1018F00073E08CE595E00E94450610920501809109
:1019000004018823C9F060E083E10E94F001F7CF71
:101910009E3040F42850310981E001C0880F2A959B
:10192000EAF70FCE2E503109F7CFFC86EB86B801CF
:10193000C9010E94F411C6CE009106011091070161
:101940000115110509F457C061E083E10E94F0011F
:101950000530110509F0A4C080918E048111A0C04A
:1019600061E00E94EB0463E273E08CE595E00E9485
:1019700045060E9442040E942D066FE273E0CE01EC
:1019800001960E943005CE0101960E948E06CE017E
:1019900001960E94000563E273E0CE0101960E9469
:1019A0003005CE0101960E948E06CE0101960E945E
:1019B000000580919004909191040E9406066BE4CA
:1019C00073E0CE0101960E943005CE0101960E947F
:1019D0008E06CE0101960E9400050E94A1030E947E
:1019E000470681E080938E04809106019091070163
:1019F000892B09F055C080918D04811151C060E0A0
:101A000083E10E94F0010E94420463E773E08CE5E9
:101A100095E00E94450661E080E00E94EB0463E2ED
:101A200073E08CE595E00E94450660ED77E080E08C
:101A300090E00E9474020E94420464E873E08CE526
:101A400095E00E94450661E080E00E94EB0464E9B5
:101A500073E08CE595E00E9445060E9442040E94D6
:101A60002D0665EA73E084E994E00E94190668ECAB
:101A700073E084E994E00E94190660EF73E084E962
:101A800094E00E94190669E673E084E994E00E94FC
:101A900019060E94A1030E94470681E080938D04ED
:101AA00084E994E00E94F900181619069CF484E970
:101AB00094E00E94D7008333910509F453C094F455
:101AC0008133910509F445C00CF049C062E174E02E
:101AD0008397A9F00E940501882309F444CE0E944F
:101AE000610641CE8533910509F442C0F4F1843694
:101AF000910551F06DE074E08337910559F784E961
:101B000094E00E941906E6CF68EE73E080E090E072
:101B10000E94740260E374E084E994E00E94190674
:101B200080910601909107010E94060666E374E029
:101B300084E994E00E9419068091900490919104A8
:101B40000E94060664EF71E080E090E00E9474025B
:101B5000C1CF81E080938F040E949F06BBCFC092CB
:101B60008F04FACFF0928F04F7CFD0928F04F4CF86
:101B7000E0928F04F1CF81E395E00E94000587E3B6
:101B800095E00E94000584E291E090933E058093E9
:101B90003D0580918B0490918C048D53954071F498
:101BA000E0915005F091510590818091520580950A
:101BB0008923808310928C0410928B040895E894FA
:101BC00009C097FB3EF490958095709561957F4F85
:101BD0008F4F9F4F9923A9F0F92F96E9BB27939533
:101BE000F695879577956795B795F111F8CFFAF443
:101BF000BB0F11F460FF1BC06F5F7F4F8F4F9F4F74
:101C000016C0882311F096E911C0772321F09EE8D1
:101C1000872F762F05C0662371F096E8862F70E037
:101C200060E02AF09A95660F771F881FDAF7880F11
:101C30009695879597F908950E942F0E0C94A00E03
:101C40000E94920E38F00E94990E20F0952311F018
:101C50000C94890E0C948F0E11240C94D40E0E94B7
:101C6000B10E70F3959FC1F3950F50E0551F629F21
:101C7000F001729FBB27F00DB11D639FAA27F00DE5
:101C8000B11DAA1F649F6627B00DA11D661F829F0C
:101C90002227B00DA11D621F739FB00DA11D621FF1
:101CA000839FA00D611D221F749F3327A00D611D0E
:101CB000231F849F600D211D822F762F6A2F1124F0
:101CC0009F5750409AF0F1F088234AF0EE0FFF1F23
:101CD000BB1F661F771F881F91505040A9F79E3F7A
:101CE000510580F00C94890E0C94D40E5F3FE4F300
:101CF000983ED4F3869577956795B795F795E795D0
:101D00009F5FC1F7FE2B880F911D9695879597F9D8
:101D1000089597F99F6780E870E060E008959FEF6D
:101D200080EC089500240A94161617061806090672
:101D3000089500240A941216130614060506089541
:101D4000092E0394000C11F4882352F0BB0F40F4C9
:101D5000BF2B11F460FF04C06F5F7F4F8F4F9F4F09
:101D6000089557FD9058440F551F59F05F3F71F08B
:101D70004795880F97FB991F61F09F3F79F08795F2
:101D80000895121613061406551FF2CF4695F1DF7B
:101D900008C0161617061806991FF1CF869571050B
:101DA000610508940895E894BB2766277727CB013F
:101DB00097F908952F923F924F925F926F927F9280
:101DC0008F929F92AF92BF92CF92DF92EF92FF924B
:101DD0000F931F93CF93DF93CDB7DEB7CA1BDB0BF7
:101DE0000FB6F894DEBF0FBECDBF09942A8839889C
:101DF00048885F846E847D848C849B84AA84B984A3
:101E0000C884DF80EE80FD800C811B81AA81B981AE
:101E1000CE0FD11D0FB6F894DEBF0FBECDBFED01C2
:101E200008950E94250F0C94A00E0E94990E58F060
:101E30000E94920E40F029F45F3F29F00C94890E25
:101E400051110C94D40E0C948F0E0E94B10E68F3B5
:101E50009923B1F3552391F3951B550BBB27AA2763
:101E600062177307840738F09F5F5F4F220F331F9D
:101E7000441FAA1FA9F335D00E2E3AF0E0E832D065
:101E800091505040E695001CCAF72BD0FE2F29D068
:101E9000660F771F881FBB1F261737074807AB073A
:101EA000B0E809F0BB0B802DBF01FF2793585F4FAF
:101EB0003AF09E3F510578F00C94890E0C94D40EA4
:101EC0005F3FE4F3983ED4F3869577956795B79591
:101ED000F7959F5FC9F7880F911D9695879597F99C
:101EE0000895E1E0660F771F881FBB1F6217730715
:101EF0008407BA0720F0621B730B840BBA0BEE1F2A
:101F000088F7E09508950E948A0F6894B1110C94A7
:101F1000D40E08950E94B90E88F09F5798F0B92FFB
:101F20009927B751B0F0E1F0660F771F881F991F0E
:101F30001AF0BA95C9F714C0B13091F00E94D30ECF
:101F4000B1E008950C94D30E672F782F8827B85FDF
:101F500039F0B93FCCF3869577956795B395D9F766
:101F60003EF490958095709561957F4F8F4F9F4F70
:101F7000089597FB072E16F4009407D077FD09D03B
:101F80000E94EF0F07FC05D03EF4909581959F4F7E
:101F90000895709561957F4F0895A1E21A2EAA1BAE
:101FA000BB1BFD010DC0AA1FBB1FEE1FFF1FA21709
:101FB000B307E407F50720F0A21BB30BE40BF50B06
:101FC000661F771F881F991F1A9469F7609570958F
:101FD000809590959B01AC01BD01CF010895AA1B8E
:101FE000BB1B51E107C0AA1FBB1FA617B70710F004
:101FF000A61BB70B881F991F5A95A9F78095909536
:10200000BC01CD010895EE0FFF1F0590F491E02D66
:1020100009940F931F93CF93DF938230910510F4AF
:1020200082E090E0E0917605F091770530E020E0E5
:10203000B0E0A0E0309799F42115310509F44AC0C9
:10204000281B390B24303105D8F58A819B81611515
:10205000710589F1FB0193838283FE0111C04081E8
:1020600051810281138148175907E0F04817590739
:1020700099F4109761F012960C93129713961C9393
:102080003296CF01DF91CF911F910F910895009368
:10209000760510937705F4CF2115310551F04217DD
:1020A000530738F0A901DB019A01BD01DF01F801F6
:1020B000C1CFEF01F9CF9093770580937605CDCF0F
:1020C000FE01E20FF31F819391932250310939836E
:1020D0002883D7CF2091740530917505232B41F4C7
:1020E00020910A0130910B013093750520937405FE
:1020F00020910801309109012115310541F42DB7D6
:102100003EB740910C0150910D01241B350BE0911D
:102110007405F0917505E217F307A0F42E1B3F0B31
:102120002817390778F0AC014E5F5F4F2417350749
:1021300048F04E0F5F1F50937505409374058193CF
:1021400091939FCFF0E0E0E09CCFCF93DF93009797
:10215000E9F0FC01329713821282A0917605B091CA
:102160007705ED0130E020E01097A1F42081318166
:10217000820F931F20917405309175052817390738
:1021800009F061C0F0937505E0937405DF91CF917C
:102190000895EA01CE17DF07E8F54A815B819E01C9
:1021A00041155105B1F7E901FB83EA834991599142
:1021B000C40FD51FEC17FD0761F480819181029651
:1021C000840F951FE90199838883828193819B8382
:1021D0008A83F0E0E0E012968D919C91139700972E
:1021E000B9F52D913C911197CD010296820F931F65
:1021F00020917405309175052817390739F6309705
:1022000051F51092770510927605B0937505A0935D
:102210007405BCCFD383C28340815181840F951F45
:10222000C817D90761F44E5F5F4F88819981480FC5
:10223000591F518340838A819B8193838283211517
:10224000310509F0B0CFF0937705E09376059ECF86
:10225000FD01DC01C0CF13821282D7CFB0E0A0E035
:10226000E4E3F1E10C94DC0E8C01009751F4CB0116
:102270000E9409108C01C801CDB7DEB7E0E10C94D3
:10228000F80EFC01E60FF71F9C0122503109E217FE
:10229000F30708F49DC0D901CD91DC911197C617C1
:1022A000D70798F0C530D10530F3CE0104978617D3
:1022B000970708F3C61BD70B2297C193D1936D9351
:1022C0007C93CF010E94A510D6CF5B01AC1ABD0A4A
:1022D0004C018C0E9D1EA0917605B0917705512C76
:1022E000412CF12CE12C109731F5809174059091DF
:1022F00075058815990509F05CC04616570608F063
:1023000058C08091080190910901009741F48DB760
:102310009EB740910C0150910D01841B950BE8175D
:10232000F90708F055C0F0937505E0937405F901BD
:1023300071836083A0CF8D919C91119712966C90C0
:10234000129713967C901397A815B90559F56C014F
:1023500042E0C40ED11CCA14DB0420F1AC014A19BE
:102360005B09DA011296159780F0628273825183BD
:102370004083D9016D937C93E114F10471F0D7018E
:102380001396FC93EE93129776CF22968C0F9D1F97
:10239000F90191838083F301EFCFF0937705E09308
:1023A000760569CF4816590608F42C017D01D30142
:1023B0009ACFCB010E9409107C01009749F0AE0131
:1023C000B8010E94EB11C8010E94A510870153CFEC
:1023D00010E000E050CFFB01DC0102C001900D9243
:1023E00041505040D8F70895FB01DC0101900D9257
:1023F0000020E1F7089510E0C2E6D0E004C0FE013D
:102400000E9403102196C336D107C9F7F894FFCF75
:10241000A602A60201010700000078058000000066
:10242000000031019B00C8007E01F900D700EB00DD
:1024300000000000C1029B005603C0021D033503CB
:10244000A80200000000FA049B005603A7024154B2
:102450002B434D47463D310041542B434D47533D9F
:102460002B393139303038343535333938004D6512
:1024700073736167652053656E7400746F206375B4
:1024800073746F6D6572004D65737361676520527B
:10249000656365697665640041542B434D47533D40
:1024A0002200220D0A00437573746F6D657220520D
:1024B00065636861726765642052732E00526563BC
:1024C0006861726765643A00707265706169642062
:1024D000656E65726779206D657465722042616C06
:1024E000616E636520416C6572743A596F75722034
:1024F00062616C616E636520686173206265656E00
:10250000207265636861726765642052733A005493
:102510006F74616C2042616C616E63653A00456C5A
:1025200065637472696369747920486173204265D8
:10253000656E2053756365737366756C6C792043A3
:102540006F6E6E656374656420616E6420546861AB
:102550006E6B20796F75002B393139313438353550
:102560003737383200536D61727420456E6572677B
:10257000790047534D20496E6974696C697A696EB8
:1025800067E280A60053797374656D2052656164BB
:10259000790041542B434E4D493D322C322C302C86
:1025A000302C3000496E697469616C697A696E67B4
:1025B0002E2E2E2E0057656C636F6D6520746F2074
:1025C000456E65726779204D6574657200556E6958
:1025D00074733A0050756C73650020202020546895
:1025E000656674202020002020202020446574652A
:1025F000637465642020202000546865667420445C
:102600006574656374656420616E64204D657465EE
:10261000722049443A3139393000436F6E74616336
:102620007420596F757200446973747269627574AD
:102630006F72004C6F772042616C616E636500457C
:102640006E65726779204D657465722042616C61B8
:102650006E636520416C6572743A00506C656173FD
:102660006520726563686172676520796F75722095
:1026700062616C616E63650A205468616E6B2079DB
:102680006F75004C696768742043757420447565E4
:1026900020746F00506C65617365205265636861DA
:1026A00072676500757220456E65726779204D65A9
:1026B00074657220005072657061696420456E65B2
:1026C000726779204D657465722042616C616E633A
:1026D0006520416C657274004C6F616420686173A1
:1026E000206265656E20637574206F666620647570
:1026F0006520746F206E6F2042616C616E636500AF
:10270000506C6561736520726563686172676520EE
:10271000796F75722062616C616E6365000A486151
:1027200069000A486F77206D7563682075207761AE
:102730006E7420746F2072656368617267653A0019
:0C274000556E69743A00507269636500C0
:00000001FF
